{
  "_format": "hh-sol-artifact-1",
  "contractName": "SwapRouter",
  "sourceName": "contracts/periphery/SwapRouter.sol",
  "abi": [
    {
      "anonymous": false,
      "inputs": [
        {
          "indexed": true,
          "internalType": "address",
          "name": "previousOwner",
          "type": "address"
        },
        {
          "indexed": true,
          "internalType": "address",
          "name": "newOwner",
          "type": "address"
        }
      ],
      "name": "OwnershipTransferred",
      "type": "event"
    },
    {
      "inputs": [],
      "name": "WNAKA",
      "outputs": [
        {
          "internalType": "address",
          "name": "",
          "type": "address"
        }
      ],
      "stateMutability": "view",
      "type": "function"
    },
    {
      "inputs": [
        {
          "components": [
            {
              "internalType": "bytes",
              "name": "path",
              "type": "bytes"
            },
            {
              "internalType": "address",
              "name": "recipient",
              "type": "address"
            },
            {
              "internalType": "uint256",
              "name": "deadline",
              "type": "uint256"
            },
            {
              "internalType": "uint256",
              "name": "amountIn",
              "type": "uint256"
            },
            {
              "internalType": "uint256",
              "name": "amountOutMinimum",
              "type": "uint256"
            },
            {
              "internalType": "bool",
              "name": "useDefiToken",
              "type": "bool"
            }
          ],
          "internalType": "struct ISwapRouter.ExactInputParams",
          "name": "params",
          "type": "tuple"
        }
      ],
      "name": "exactInput",
      "outputs": [
        {
          "internalType": "uint256",
          "name": "amountOut",
          "type": "uint256"
        }
      ],
      "stateMutability": "payable",
      "type": "function"
    },
    {
      "inputs": [
        {
          "components": [
            {
              "internalType": "address",
              "name": "tokenIn",
              "type": "address"
            },
            {
              "internalType": "address",
              "name": "tokenOut",
              "type": "address"
            },
            {
              "internalType": "uint24",
              "name": "fee",
              "type": "uint24"
            },
            {
              "internalType": "address",
              "name": "recipient",
              "type": "address"
            },
            {
              "internalType": "uint256",
              "name": "deadline",
              "type": "uint256"
            },
            {
              "internalType": "uint256",
              "name": "amountIn",
              "type": "uint256"
            },
            {
              "internalType": "uint256",
              "name": "amountOutMinimum",
              "type": "uint256"
            },
            {
              "internalType": "uint160",
              "name": "sqrtPriceLimitX96",
              "type": "uint160"
            },
            {
              "internalType": "bool",
              "name": "useDefiToken",
              "type": "bool"
            }
          ],
          "internalType": "struct ISwapRouter.ExactInputSingleParams",
          "name": "params",
          "type": "tuple"
        }
      ],
      "name": "exactInputSingle",
      "outputs": [
        {
          "internalType": "uint256",
          "name": "amountOut",
          "type": "uint256"
        }
      ],
      "stateMutability": "payable",
      "type": "function"
    },
    {
      "inputs": [
        {
          "components": [
            {
              "internalType": "bytes",
              "name": "path",
              "type": "bytes"
            },
            {
              "internalType": "address",
              "name": "recipient",
              "type": "address"
            },
            {
              "internalType": "uint256",
              "name": "deadline",
              "type": "uint256"
            },
            {
              "internalType": "uint256",
              "name": "amountOut",
              "type": "uint256"
            },
            {
              "internalType": "uint256",
              "name": "amountInMaximum",
              "type": "uint256"
            },
            {
              "internalType": "bool",
              "name": "useDefiToken",
              "type": "bool"
            }
          ],
          "internalType": "struct ISwapRouter.ExactOutputParams",
          "name": "params",
          "type": "tuple"
        }
      ],
      "name": "exactOutput",
      "outputs": [
        {
          "internalType": "uint256",
          "name": "amountIn",
          "type": "uint256"
        }
      ],
      "stateMutability": "payable",
      "type": "function"
    },
    {
      "inputs": [
        {
          "components": [
            {
              "internalType": "address",
              "name": "tokenIn",
              "type": "address"
            },
            {
              "internalType": "address",
              "name": "tokenOut",
              "type": "address"
            },
            {
              "internalType": "uint24",
              "name": "fee",
              "type": "uint24"
            },
            {
              "internalType": "address",
              "name": "recipient",
              "type": "address"
            },
            {
              "internalType": "uint256",
              "name": "deadline",
              "type": "uint256"
            },
            {
              "internalType": "uint256",
              "name": "amountOut",
              "type": "uint256"
            },
            {
              "internalType": "uint256",
              "name": "amountInMaximum",
              "type": "uint256"
            },
            {
              "internalType": "uint160",
              "name": "sqrtPriceLimitX96",
              "type": "uint160"
            },
            {
              "internalType": "bool",
              "name": "useDefiToken",
              "type": "bool"
            }
          ],
          "internalType": "struct ISwapRouter.ExactOutputSingleParams",
          "name": "params",
          "type": "tuple"
        }
      ],
      "name": "exactOutputSingle",
      "outputs": [
        {
          "internalType": "uint256",
          "name": "amountIn",
          "type": "uint256"
        }
      ],
      "stateMutability": "payable",
      "type": "function"
    },
    {
      "inputs": [],
      "name": "factory",
      "outputs": [
        {
          "internalType": "address",
          "name": "",
          "type": "address"
        }
      ],
      "stateMutability": "view",
      "type": "function"
    },
    {
      "inputs": [
        {
          "internalType": "address",
          "name": "_factory",
          "type": "address"
        },
        {
          "internalType": "address",
          "name": "_WNAKA",
          "type": "address"
        }
      ],
      "name": "initialize",
      "outputs": [],
      "stateMutability": "nonpayable",
      "type": "function"
    },
    {
      "inputs": [
        {
          "internalType": "bytes[]",
          "name": "data",
          "type": "bytes[]"
        }
      ],
      "name": "multicall",
      "outputs": [
        {
          "internalType": "bytes[]",
          "name": "results",
          "type": "bytes[]"
        }
      ],
      "stateMutability": "payable",
      "type": "function"
    },
    {
      "inputs": [],
      "name": "owner",
      "outputs": [
        {
          "internalType": "address",
          "name": "",
          "type": "address"
        }
      ],
      "stateMutability": "view",
      "type": "function"
    },
    {
      "inputs": [],
      "name": "refundNAKA",
      "outputs": [],
      "stateMutability": "payable",
      "type": "function"
    },
    {
      "inputs": [],
      "name": "renounceOwnership",
      "outputs": [],
      "stateMutability": "nonpayable",
      "type": "function"
    },
    {
      "inputs": [
        {
          "internalType": "address",
          "name": "token",
          "type": "address"
        },
        {
          "internalType": "uint256",
          "name": "value",
          "type": "uint256"
        },
        {
          "internalType": "uint256",
          "name": "deadline",
          "type": "uint256"
        },
        {
          "internalType": "uint8",
          "name": "v",
          "type": "uint8"
        },
        {
          "internalType": "bytes32",
          "name": "r",
          "type": "bytes32"
        },
        {
          "internalType": "bytes32",
          "name": "s",
          "type": "bytes32"
        }
      ],
      "name": "selfPermit",
      "outputs": [],
      "stateMutability": "payable",
      "type": "function"
    },
    {
      "inputs": [
        {
          "internalType": "address",
          "name": "token",
          "type": "address"
        },
        {
          "internalType": "uint256",
          "name": "nonce",
          "type": "uint256"
        },
        {
          "internalType": "uint256",
          "name": "expiry",
          "type": "uint256"
        },
        {
          "internalType": "uint8",
          "name": "v",
          "type": "uint8"
        },
        {
          "internalType": "bytes32",
          "name": "r",
          "type": "bytes32"
        },
        {
          "internalType": "bytes32",
          "name": "s",
          "type": "bytes32"
        }
      ],
      "name": "selfPermitAllowed",
      "outputs": [],
      "stateMutability": "payable",
      "type": "function"
    },
    {
      "inputs": [
        {
          "internalType": "address",
          "name": "token",
          "type": "address"
        },
        {
          "internalType": "uint256",
          "name": "nonce",
          "type": "uint256"
        },
        {
          "internalType": "uint256",
          "name": "expiry",
          "type": "uint256"
        },
        {
          "internalType": "uint8",
          "name": "v",
          "type": "uint8"
        },
        {
          "internalType": "bytes32",
          "name": "r",
          "type": "bytes32"
        },
        {
          "internalType": "bytes32",
          "name": "s",
          "type": "bytes32"
        }
      ],
      "name": "selfPermitAllowedIfNecessary",
      "outputs": [],
      "stateMutability": "payable",
      "type": "function"
    },
    {
      "inputs": [
        {
          "internalType": "address",
          "name": "token",
          "type": "address"
        },
        {
          "internalType": "uint256",
          "name": "value",
          "type": "uint256"
        },
        {
          "internalType": "uint256",
          "name": "deadline",
          "type": "uint256"
        },
        {
          "internalType": "uint8",
          "name": "v",
          "type": "uint8"
        },
        {
          "internalType": "bytes32",
          "name": "r",
          "type": "bytes32"
        },
        {
          "internalType": "bytes32",
          "name": "s",
          "type": "bytes32"
        }
      ],
      "name": "selfPermitIfNecessary",
      "outputs": [],
      "stateMutability": "payable",
      "type": "function"
    },
    {
      "inputs": [
        {
          "internalType": "address",
          "name": "WNAKAArg",
          "type": "address"
        }
      ],
      "name": "setWNAKA",
      "outputs": [],
      "stateMutability": "nonpayable",
      "type": "function"
    },
    {
      "inputs": [
        {
          "internalType": "address",
          "name": "token",
          "type": "address"
        },
        {
          "internalType": "uint256",
          "name": "amountMinimum",
          "type": "uint256"
        },
        {
          "internalType": "address",
          "name": "recipient",
          "type": "address"
        }
      ],
      "name": "sweepToken",
      "outputs": [],
      "stateMutability": "payable",
      "type": "function"
    },
    {
      "inputs": [
        {
          "internalType": "address",
          "name": "token",
          "type": "address"
        },
        {
          "internalType": "uint256",
          "name": "amountMinimum",
          "type": "uint256"
        },
        {
          "internalType": "address",
          "name": "recipient",
          "type": "address"
        },
        {
          "internalType": "uint256",
          "name": "feeBips",
          "type": "uint256"
        },
        {
          "internalType": "address",
          "name": "feeRecipient",
          "type": "address"
        }
      ],
      "name": "sweepTokenWithFee",
      "outputs": [],
      "stateMutability": "payable",
      "type": "function"
    },
    {
      "inputs": [
        {
          "internalType": "address",
          "name": "newOwner",
          "type": "address"
        }
      ],
      "name": "transferOwnership",
      "outputs": [],
      "stateMutability": "nonpayable",
      "type": "function"
    },
    {
      "inputs": [
        {
          "internalType": "int256",
          "name": "amount0Delta",
          "type": "int256"
        },
        {
          "internalType": "int256",
          "name": "amount1Delta",
          "type": "int256"
        },
        {
          "internalType": "address",
          "name": "defiToken",
          "type": "address"
        },
        {
          "internalType": "int256",
          "name": "amountDefi",
          "type": "int256"
        },
        {
          "internalType": "bytes",
          "name": "_data",
          "type": "bytes"
        }
      ],
      "name": "uniswapV3SwapCallback",
      "outputs": [],
      "stateMutability": "nonpayable",
      "type": "function"
    },
    {
      "inputs": [
        {
          "internalType": "uint256",
          "name": "amountMinimum",
          "type": "uint256"
        },
        {
          "internalType": "address",
          "name": "recipient",
          "type": "address"
        }
      ],
      "name": "unwrapWNAKA",
      "outputs": [],
      "stateMutability": "payable",
      "type": "function"
    },
    {
      "inputs": [
        {
          "internalType": "uint256",
          "name": "amountMinimum",
          "type": "uint256"
        },
        {
          "internalType": "address",
          "name": "recipient",
          "type": "address"
        },
        {
          "internalType": "uint256",
          "name": "feeBips",
          "type": "uint256"
        },
        {
          "internalType": "address",
          "name": "feeRecipient",
          "type": "address"
        }
      ],
      "name": "unwrapWNAKAWithFee",
      "outputs": [],
      "stateMutability": "payable",
      "type": "function"
    },
    {
      "stateMutability": "payable",
      "type": "receive"
    }
  ],
  "bytecode": "0x608060405260001960675534801561001657600080fd5b50612e77806100266000396000f3fe6080604052600436106101395760003560e01c80638da5cb5b116100ab578063c45a01551161006f578063c45a015514610304578063df2ab5bb14610319578063e0e189a01461032c578063f2fde38b1461033f578063f3995c671461035f578063fa27e18c146103725761018a565b80638da5cb5b146102965780639e120e77146102ab578063a4a78f0c146102be578063ac9650d8146102d1578063c2e3140a146102f15761018a565b8063485cc955116100fd578063485cc955146102135780636aa21c8814610233578063715018a614610246578063800a936f1461025b57806384f9ea241461026e578063868c85211461028e5761018a565b8063102dc2e61461018f578063197457d4146101ba5780631a9d82d5146101da578063219a785d146101ed5780634659a494146102005761018a565b3661018a576066546001600160a01b03163314610188576040805162461bcd60e51b81526020600482015260086024820152674e6f74204e414b4160c01b604482015290519081900360640190fd5b005b600080fd5b34801561019b57600080fd5b506101a4610392565b6040516101b19190612bbc565b60405180910390f35b6101cd6101c83660046129d7565b6103a1565b6040516101b19190612d3a565b6101cd6101e83660046129bb565b6104c3565b6101cd6101fb366004612902565b6105f1565b61018861020e3660046126e6565b610710565b34801561021f57600080fd5b5061018861022e36600461260f565b6107aa565b610188610241366004612afc565b610858565b34801561025257600080fd5b506101886109e6565b610188610269366004612ad8565b610aa4565b34801561027a57600080fd5b506101886102893660046125ec565b610bdb565b610188610c71565b3480156102a257600080fd5b506101a4610c83565b6101cd6102b93660046129bb565b610c92565b6101886102cc3660046126e6565b610dbc565b6102e46102df366004612746565b610e4d565b6040516101b19190612bd0565b6101886102ff3660046126e6565b610f8d565b34801561031057600080fd5b506101a461101c565b610188610327366004612647565b61102b565b61018861033a366004612688565b611109565b34801561034b57600080fd5b5061018861035a3660046125ec565b611230565b61018861036d3660046126e6565b611345565b34801561037e57600080fd5b5061018861038d3660046127cf565b6113b7565b6066546001600160a01b031681565b60008160400135806103b16114f1565b11156103fa576040805162461bcd60e51b8152602060048201526013602482015272151c985b9cd858dd1a5bdb881d1bdbc81bdb19606a1b604482015290519081900360640190fd5b610484606084013561041260408601602087016125ec565b600061042460c0880160a089016127b5565b60408051606081019091528061043a8a80612d43565b8080601f01602080910402602001604051908101604052809392919081815260200183838082843760009201919091525050509082525033602082018190526040909101526114f5565b50606754915082608001358211156104b75760405162461bcd60e51b81526004016104ae90612c43565b60405180910390fd5b50600019606755919050565b60008160800135806104d36114f1565b111561051c576040805162461bcd60e51b8152602060048201526013602482015272151c985b9cd858dd1a5bdb881d1bdbc81bdb19606a1b604482015290519081900360640190fd5b6105c560a084013561053460808601606087016125ec565b610545610100870160e088016125ec565b610557610120880161010089016127b5565b60408051606081019091528061057060208b018b6125ec565b61058060608c0160408d01612ab5565b61059060408d0160208e016125ec565b6040516020016105a293929190612b71565b60408051601f1981840301815291815290825233602083018190529101526116ba565b91508260c001358210156105eb5760405162461bcd60e51b81526004016104ae90612c6f565b50919050565b60008160400151806106016114f1565b111561064a576040805162461bcd60e51b8152602060048201526013602482015272151c985b9cd858dd1a5bdb881d1bdbc81bdb19606a1b604482015290519081900360640190fd5b335b600061065b8560000151611857565b90506106b2856060015182610674578660200151610676565b305b60008860a0015160405180606001604052806106958c60000151611863565b81526001600160a01b0389166020820152336040909101526116ba565b606086015280156106d25784513092506106cb90611878565b85526106df565b84606001519350506106e5565b5061064c565b83608001518310156107095760405162461bcd60e51b81526004016104ae90612c6f565b5050919050565b604080516323f2ebc360e21b815233600482015230602482015260448101879052606481018690526001608482015260ff851660a482015260c4810184905260e4810183905290516001600160a01b03881691638fcbaf0c9161010480830192600092919082900301818387803b15801561078a57600080fd5b505af115801561079e573d6000803e3d6000fd5b50505050505050505050565b600054610100900460ff16806107c357506107c361188f565b806107d1575060005460ff16155b61080c5760405162461bcd60e51b815260040180806020018281038252602e815260200180612e3d602e913960400191505060405180910390fd5b600054610100900460ff16158015610837576000805460ff1961ff0019909116610100171660011790555b61084183836118a0565b8015610853576000805461ff00191690555b505050565b600082118015610869575060648211155b61087257600080fd5b606654604080516370a0823160e01b815230600482015290516000926001600160a01b0316916370a08231916024808301926020929190829003018186803b1580156108bd57600080fd5b505afa1580156108d1573d6000803e3d6000fd5b505050506040513d60208110156108e757600080fd5b5051905084811015610934576040805162461bcd60e51b8152602060048201526011602482015270496e73756666696369656e74204e414b4160781b604482015290519081900360640190fd5b80156109df5760665460408051632e1a7d4d60e01b81526004810184905290516001600160a01b0390921691632e1a7d4d9160248082019260009290919082900301818387803b15801561098757600080fd5b505af115801561099b573d6000803e3d6000fd5b5050505060006127106109b7858461197b90919063ffffffff16565b816109be57fe5b04905080156109d1576109d1838261199f565b6109dd8582840361199f565b505b5050505050565b6109ee611a8e565b6001600160a01b03166109ff610c83565b6001600160a01b031614610a5a576040805162461bcd60e51b815260206004820181905260248201527f4f776e61626c653a2063616c6c6572206973206e6f7420746865206f776e6572604482015290519081900360640190fd5b6033546040516000916001600160a01b0316907f8be0079c531659141344cd1fd0a4f28419497f9722a3daafe3b4186f6b6457e0908390a3603380546001600160a01b0319169055565b606654604080516370a0823160e01b815230600482015290516000926001600160a01b0316916370a08231916024808301926020929190829003018186803b158015610aef57600080fd5b505afa158015610b03573d6000803e3d6000fd5b505050506040513d6020811015610b1957600080fd5b5051905082811015610b66576040805162461bcd60e51b8152602060048201526011602482015270496e73756666696369656e74204e414b4160781b604482015290519081900360640190fd5b80156108535760665460408051632e1a7d4d60e01b81526004810184905290516001600160a01b0390921691632e1a7d4d9160248082019260009290919082900301818387803b158015610bb957600080fd5b505af1158015610bcd573d6000803e3d6000fd5b50505050610853828261199f565b610be3611a8e565b6001600160a01b0316610bf4610c83565b6001600160a01b031614610c4f576040805162461bcd60e51b815260206004820181905260248201527f4f776e61626c653a2063616c6c6572206973206e6f7420746865206f776e6572604482015290519081900360640190fd5b606680546001600160a01b0319166001600160a01b0392909216919091179055565b4715610c8157610c81334761199f565b565b6033546001600160a01b031690565b6000816080013580610ca26114f1565b1115610ceb576040805162461bcd60e51b8152602060048201526013602482015272151c985b9cd858dd1a5bdb881d1bdbc81bdb19606a1b604482015290519081900360640190fd5b610d9660a0840135610d0360808601606087016125ec565b610d14610100870160e088016125ec565b610d26610120880161010089016127b5565b6040518060600160405280896020016020810190610d4491906125ec565b610d5460608c0160408d01612ab5565b610d6160208d018d6125ec565b604051602001610d7393929190612b71565b60408051601f1981840301815291815290825233602083018190529101526114f5565b91508260c001358211156104b75760405162461bcd60e51b81526004016104ae90612c43565b60408051636eb1769f60e11b81523360048201523060248201529051600019916001600160a01b0389169163dd62ed3e91604480820192602092909190829003018186803b158015610e0d57600080fd5b505afa158015610e21573d6000803e3d6000fd5b505050506040513d6020811015610e3757600080fd5b505110156109dd576109dd868686868686610710565b60608167ffffffffffffffff81118015610e6657600080fd5b50604051908082528060200260200182016040528015610e9a57816020015b6060815260200190600190039081610e855790505b50905060005b82811015610f865760008030868685818110610eb857fe5b9050602002810190610eca9190612d43565b604051610ed8929190612bac565b600060405180830381855af49150503d8060008114610f13576040519150601f19603f3d011682016040523d82523d6000602084013e610f18565b606091505b509150915081610f6457604481511015610f3157600080fd5b60048101905080806020019051810190610f4b9190612898565b60405162461bcd60e51b81526004016104ae9190612c30565b80848481518110610f7157fe5b60209081029190910101525050600101610ea0565b5092915050565b60408051636eb1769f60e11b8152336004820152306024820152905186916001600160a01b0389169163dd62ed3e91604480820192602092909190829003018186803b158015610fdc57600080fd5b505afa158015610ff0573d6000803e3d6000fd5b505050506040513d602081101561100657600080fd5b505110156109dd576109dd868686868686611345565b6065546001600160a01b031681565b6000836001600160a01b03166370a08231306040518263ffffffff1660e01b815260040180826001600160a01b0316815260200191505060206040518083038186803b15801561107a57600080fd5b505afa15801561108e573d6000803e3d6000fd5b505050506040513d60208110156110a457600080fd5b50519050828110156110f2576040805162461bcd60e51b815260206004820152601260248201527124b739bab33334b1b4b2b73a103a37b5b2b760711b604482015290519081900360640190fd5b801561110357611103848383611a92565b50505050565b60008211801561111a575060648211155b61112357600080fd5b6000856001600160a01b03166370a08231306040518263ffffffff1660e01b815260040180826001600160a01b0316815260200191505060206040518083038186803b15801561117257600080fd5b505afa158015611186573d6000803e3d6000fd5b505050506040513d602081101561119c57600080fd5b50519050848110156111ea576040805162461bcd60e51b815260206004820152601260248201527124b739bab33334b1b4b2b73a103a37b5b2b760711b604482015290519081900360640190fd5b80156109dd5760006127106111ff838661197b565b8161120657fe5b049050801561121a5761121a878483611a92565b6112278786838503611a92565b50505050505050565b611238611a8e565b6001600160a01b0316611249610c83565b6001600160a01b0316146112a4576040805162461bcd60e51b815260206004820181905260248201527f4f776e61626c653a2063616c6c6572206973206e6f7420746865206f776e6572604482015290519081900360640190fd5b6001600160a01b0381166112e95760405162461bcd60e51b8152600401808060200182810382526026815260200180612e176026913960400191505060405180910390fd5b6033546040516001600160a01b038084169216907f8be0079c531659141344cd1fd0a4f28419497f9722a3daafe3b4186f6b6457e090600090a3603380546001600160a01b0319166001600160a01b0392909216919091179055565b6040805163d505accf60e01b8152336004820152306024820152604481018790526064810186905260ff8516608482015260a4810184905260c4810183905290516001600160a01b0388169163d505accf9160e480830192600092919082900301818387803b15801561078a57600080fd5b60008613806113c65750600085135b6113cf57600080fd5b60006113dd82840184612a0f565b905060008060006113f18460000151611bd9565b6065549295509093509150611411906001600160a01b0316848484611c0a565b5060008060008c1361143857846001600160a01b0316846001600160a01b0316108b61144f565b836001600160a01b0316856001600160a01b0316108c5b91509150811561146e576114698587602001513384611c29565b6114c4565b855161147990611857565b156114aa57855161148990611878565b86526114a4813360006001600160a01b038e1615158a6114f5565b506114c4565b806067819055508394506114c48587602001513384611c29565b6001600160a01b038a16156114e3576114e38a8760400151338c611c29565b505050505050505050505050565b4290565b60006114ff61254e565b6001600160a01b038616611511573095505b825161151c90611bd9565b62ffffff16604084018190526001600160a01b0391821660208501819052929091168084528083109260009283926115549291611d67565b6001600160a01b0316635f4ea6846040518060a001604052808c6001600160a01b03168152602001861515815260200161158d8e611d92565b60000381526020016001600160a01b038c16156115aa578b6115d0565b866115c95773fffd8963efd1fc6a506488495d951d5263988d256115d0565b6401000276a45b6001600160a01b031681528a15156020918201526040516115f3918b9101612c9c565b6040516020818303038152906040526040518363ffffffff1660e01b815260040161161f929190612ce8565b606060405180830381600087803b15801561163957600080fd5b505af115801561164d573d6000803e3d6000fd5b505050506040513d601f19601f82011682018060405250810190611671919061286b565b509150915060008361168757818360000361168d565b82826000035b90965090506001600160a01b0389166116ac578a81146116ac57600080fd5b505050505095945050505050565b60006116c461254e565b6001600160a01b0386166116d6573095505b82516116e190611bd9565b62ffffff16604084018190526001600160a01b03918216602085018190529290911680845282811092600092839261171a929091611d67565b6001600160a01b0316635f4ea6846040518060a001604052808c6001600160a01b0316815260200186151581526020016117538e611d92565b81526020016001600160a01b038c161561176d578b611793565b8661178c5773fffd8963efd1fc6a506488495d951d5263988d25611793565b6401000276a45b6001600160a01b031681528a15156020918201526040516117b6918b9101612c9c565b6040516020818303038152906040526040518363ffffffff1660e01b81526004016117e2929190612ce8565b606060405180830381600087803b1580156117fc57600080fd5b505af1158015611810573d6000803e3d6000fd5b505050506040513d601f19601f82011682018060405250810190611834919061286b565b5091509150826118445781611846565b805b6000039a9950505050505050505050565b8051604211155b919050565b6060611872826000602b611da8565b92915050565b805160609061187290839060179060161901611da8565b600061189a30611ef9565b15905090565b600054610100900460ff16806118b957506118b961188f565b806118c7575060005460ff16155b6119025760405162461bcd60e51b815260040180806020018281038252602e815260200180612e3d602e913960400191505060405180910390fd5b600054610100900460ff1615801561192d576000805460ff1961ff0019909116610100171660011790555b611935611eff565b606580546001600160a01b038086166001600160a01b03199283161790925560668054928516929091169190911790558015610853576000805461ff0019169055505050565b60008215806119965750508181028183828161199357fe5b04145b61187257600080fd5b604080516000808252602082019092526001600160a01b0384169083906040518082805190602001908083835b602083106119eb5780518252601f1990920191602091820191016119cc565b6001836020036101000a03801982511681845116808217855250505050505090500191505060006040518083038185875af1925050503d8060008114611a4d576040519150601f19603f3d011682016040523d82523d6000602084013e611a52565b606091505b5050905080610853576040805162461bcd60e51b815260206004820152600360248201526253544560e81b604482015290519081900360640190fd5b3390565b604080516001600160a01b038481166024830152604480830185905283518084039091018152606490920183526020820180516001600160e01b031663a9059cbb60e01b1781529251825160009485949389169392918291908083835b60208310611b0e5780518252601f199092019160209182019101611aef565b6001836020036101000a0380198251168184511680821785525050505050509050019150506000604051808303816000865af19150503d8060008114611b70576040519150601f19603f3d011682016040523d82523d6000602084013e611b75565b606091505b5091509150818015611ba3575080511580611ba35750808060200190516020811015611ba057600080fd5b50515b6109df576040805162461bcd60e51b815260206004820152600260248201526114d560f21b604482015290519081900360640190fd5b60008080611be78482611fb1565b9250611bf4846014612061565b9050611c01846017611fb1565b91509193909250565b6000611c2085611c1b868686612108565b61215e565b95945050505050565b6066546001600160a01b038581169116148015611c465750804710155b15611d3a57606660009054906101000a90046001600160a01b03166001600160a01b031663d0e30db0826040518263ffffffff1660e01b81526004016000604051808303818588803b158015611c9b57600080fd5b505af1158015611caf573d6000803e3d6000fd5b50506066546040805163a9059cbb60e01b81526001600160a01b03888116600483015260248201889052915191909216945063a9059cbb9350604480830193506020928290030181600087803b158015611d0857600080fd5b505af1158015611d1c573d6000803e3d6000fd5b505050506040513d6020811015611d3257600080fd5b506111039050565b6001600160a01b038316301415611d5b57611d56848383611a92565b611103565b61110384848484612181565b606554600090611d8a906001600160a01b0316611d85868686612108565b6122d1565b949350505050565b6000600160ff1b8210611da457600080fd5b5090565b60608182601f011015611df3576040805162461bcd60e51b815260206004820152600e60248201526d736c6963655f6f766572666c6f7760901b604482015290519081900360640190fd5b828284011015611e3b576040805162461bcd60e51b815260206004820152600e60248201526d736c6963655f6f766572666c6f7760901b604482015290519081900360640190fd5b81830184511015611e87576040805162461bcd60e51b8152602060048201526011602482015270736c6963655f6f75744f66426f756e647360781b604482015290519081900360640190fd5b606082158015611ea65760405191506000825260208201604052611ef0565b6040519150601f8416801560200281840101858101878315602002848b0101015b81831015611edf578051835260209283019201611ec7565b5050858452601f01601f1916604052505b50949350505050565b3b151590565b600054610100900460ff1680611f185750611f1861188f565b80611f26575060005460ff16155b611f615760405162461bcd60e51b815260040180806020018281038252602e815260200180612e3d602e913960400191505060405180910390fd5b600054610100900460ff16158015611f8c576000805460ff1961ff0019909116610100171660011790555b611f946123b5565b611f9c612455565b8015611fae576000805461ff00191690555b50565b600081826014011015612000576040805162461bcd60e51b8152602060048201526012602482015271746f416464726573735f6f766572666c6f7760701b604482015290519081900360640190fd5b8160140183511015612051576040805162461bcd60e51b8152602060048201526015602482015274746f416464726573735f6f75744f66426f756e647360581b604482015290519081900360640190fd5b500160200151600160601b900490565b6000818260030110156120af576040805162461bcd60e51b8152602060048201526011602482015270746f55696e7432345f6f766572666c6f7760781b604482015290519081900360640190fd5b81600301835110156120ff576040805162461bcd60e51b8152602060048201526014602482015273746f55696e7432345f6f75744f66426f756e647360601b604482015290519081900360640190fd5b50016003015190565b61211061254e565b826001600160a01b0316846001600160a01b0316111561212e579192915b50604080516060810182526001600160a01b03948516815292909316602083015262ffffff169181019190915290565b600061216a83836122d1565b9050336001600160a01b0382161461187257600080fd5b604080516001600160a01b0385811660248301528481166044830152606480830185905283518084039091018152608490920183526020820180516001600160e01b03166323b872dd60e01b178152925182516000948594938a169392918291908083835b602083106122055780518252601f1990920191602091820191016121e6565b6001836020036101000a0380198251168184511680821785525050505050509050019150506000604051808303816000865af19150503d8060008114612267576040519150601f19603f3d011682016040523d82523d6000602084013e61226c565b606091505b509150915081801561229a57508051158061229a575080806020019051602081101561229757600080fd5b50515b6109dd576040805162461bcd60e51b815260206004820152600360248201526229aa2360e91b604482015290519081900360640190fd5b600081602001516001600160a01b031682600001516001600160a01b0316106122f957600080fd5b50805160208083015160409384015184516001600160a01b0394851681850152939091168385015262ffffff166060808401919091528351808403820181526080840185528051908301206001600160f81b031960a085015294901b6bffffffffffffffffffffffff191660a183015260b58201939093527f04759a882be3a45ff74719de5c82516d29af4b3480d076fc0c57b2fdab813bc760d5808301919091528251808303909101815260f5909101909152805191012090565b600054610100900460ff16806123ce57506123ce61188f565b806123dc575060005460ff16155b6124175760405162461bcd60e51b815260040180806020018281038252602e815260200180612e3d602e913960400191505060405180910390fd5b600054610100900460ff16158015611f9c576000805460ff1961ff0019909116610100171660011790558015611fae576000805461ff001916905550565b600054610100900460ff168061246e575061246e61188f565b8061247c575060005460ff16155b6124b75760405162461bcd60e51b815260040180806020018281038252602e815260200180612e3d602e913960400191505060405180910390fd5b600054610100900460ff161580156124e2576000805460ff1961ff0019909116610100171660011790555b60006124ec611a8e565b603380546001600160a01b0319166001600160a01b038316908117909155604051919250906000907f8be0079c531659141344cd1fd0a4f28419497f9722a3daafe3b4186f6b6457e0908290a3508015611fae576000805461ff001916905550565b604080516060810182526000808252602082018190529181019190915290565b803561185e81612e01565b8035801515811461185e57600080fd5b600082601f830112612599578081fd5b81356125ac6125a782612db3565b612d8f565b8181528460208386010111156125c0578283fd5b816020850160208301379081016020019190915292915050565b600061012082840312156105eb578081fd5b6000602082840312156125fd578081fd5b813561260881612e01565b9392505050565b60008060408385031215612621578081fd5b823561262c81612e01565b9150602083013561263c81612e01565b809150509250929050565b60008060006060848603121561265b578081fd5b833561266681612e01565b925060208401359150604084013561267d81612e01565b809150509250925092565b600080600080600060a0868803121561269f578081fd5b85356126aa81612e01565b94506020860135935060408601356126c181612e01565b92506060860135915060808601356126d881612e01565b809150509295509295909350565b60008060008060008060c087890312156126fe578081fd5b863561270981612e01565b95506020870135945060408701359350606087013560ff8116811461272c578182fd5b9598949750929560808101359460a0909101359350915050565b60008060208385031215612758578182fd5b823567ffffffffffffffff8082111561276f578384fd5b818501915085601f830112612782578384fd5b813581811115612790578485fd5b86602080830285010111156127a3578485fd5b60209290920196919550909350505050565b6000602082840312156127c6578081fd5b61260882612579565b60008060008060008060a087890312156127e7578384fd5b8635955060208701359450604087013561280081612e01565b935060608701359250608087013567ffffffffffffffff80821115612823578384fd5b818901915089601f830112612836578384fd5b813581811115612844578485fd5b8a6020828501011115612855578485fd5b6020830194508093505050509295509295509295565b60008060006060848603121561287f578081fd5b8351925060208401519150604084015190509250925092565b6000602082840312156128a9578081fd5b815167ffffffffffffffff8111156128bf578182fd5b8201601f810184136128cf578182fd5b80516128dd6125a782612db3565b8181528560208385010111156128f1578384fd5b611c20826020830160208601612dd5565b600060208284031215612913578081fd5b813567ffffffffffffffff8082111561292a578283fd5b9083019060c0828603121561293d578283fd5b60405160c08101818110838211171561295257fe5b604052823582811115612963578485fd5b61296f87828601612589565b82525061297e6020840161256e565b60208201526040830135604082015260608301356060820152608083013560808201526129ad60a08401612579565b60a082015295945050505050565b600061012082840312156129cd578081fd5b61260883836125da565b6000602082840312156129e8578081fd5b813567ffffffffffffffff8111156129fe578182fd5b820160c08185031215612608578182fd5b600060208284031215612a20578081fd5b813567ffffffffffffffff80821115612a37578283fd5b9083019060608286031215612a4a578283fd5b604051606081018181108382111715612a5f57fe5b604052823582811115612a70578485fd5b612a7c87828601612589565b82525060208301359150612a8f82612e01565b81602082015260408301359250612aa583612e01565b6040810192909252509392505050565b600060208284031215612ac6578081fd5b813562ffffff81168114612608578182fd5b60008060408385031215612aea578182fd5b82359150602083013561263c81612e01565b60008060008060808587031215612b11578182fd5b843593506020850135612b2381612e01565b9250604085013591506060850135612b3a81612e01565b939692955090935050565b60008151808452612b5d816020860160208601612dd5565b601f01601f19169290920160200192915050565b606093841b6bffffffffffffffffffffffff19908116825260e89390931b6001600160e81b0319166014820152921b166017820152602b0190565b6000828483379101908152919050565b6001600160a01b0391909116815260200190565b6000602080830181845280855180835260408601915060408482028701019250838701855b82811015612c2357603f19888603018452612c11858351612b45565b94509285019290850190600101612bf5565b5092979650505050505050565b6000602082526126086020830184612b45565b602080825260129082015271151bdbc81b5d58da081c995c5d595cdd195960721b604082015260600190565b602080825260139082015272151bdbc81b1a5d1d1b19481c9958d95a5d9959606a1b604082015260600190565b600060208252825160606020840152612cb86080840182612b45565b60208501516001600160a01b03908116604086810191909152909501519094166060909301929092525090919050565b600060018060a01b03808551168352602085015115156020840152604085015160408401528060608601511660608401525060808401511515608083015260c060a0830152611d8a60c0830184612b45565b90815260200190565b6000808335601e19843603018112612d59578283fd5b83018035915067ffffffffffffffff821115612d73578283fd5b602001915036819003821315612d8857600080fd5b9250929050565b60405181810167ffffffffffffffff81118282101715612dab57fe5b604052919050565b600067ffffffffffffffff821115612dc757fe5b50601f01601f191660200190565b60005b83811015612df0578181015183820152602001612dd8565b838111156111035750506000910152565b6001600160a01b0381168114611fae57600080fdfe4f776e61626c653a206e6577206f776e657220697320746865207a65726f2061646472657373496e697469616c697a61626c653a20636f6e747261637420697320616c726561647920696e697469616c697a6564a164736f6c6343000706000a",
  "linkReferences": {},
  "deployedLinkReferences": {}
}