{
  "_format": "hh-sol-artifact-1",
  "contractName": "QuoterV2",
  "sourceName": "contracts/periphery/lens/QuoterV2.sol",
  "abi": [
    {
      "anonymous": false,
      "inputs": [
        {
          "indexed": true,
          "internalType": "address",
          "name": "previousOwner",
          "type": "address"
        },
        {
          "indexed": true,
          "internalType": "address",
          "name": "newOwner",
          "type": "address"
        }
      ],
      "name": "OwnershipTransferred",
      "type": "event"
    },
    {
      "inputs": [],
      "name": "WTC",
      "outputs": [
        {
          "internalType": "address",
          "name": "",
          "type": "address"
        }
      ],
      "stateMutability": "view",
      "type": "function"
    },
    {
      "inputs": [],
      "name": "factory",
      "outputs": [
        {
          "internalType": "address",
          "name": "",
          "type": "address"
        }
      ],
      "stateMutability": "view",
      "type": "function"
    },
    {
      "inputs": [
        {
          "internalType": "address",
          "name": "_factory",
          "type": "address"
        },
        {
          "internalType": "address",
          "name": "_WTC",
          "type": "address"
        }
      ],
      "name": "initialize",
      "outputs": [],
      "stateMutability": "nonpayable",
      "type": "function"
    },
    {
      "inputs": [],
      "name": "owner",
      "outputs": [
        {
          "internalType": "address",
          "name": "",
          "type": "address"
        }
      ],
      "stateMutability": "view",
      "type": "function"
    },
    {
      "inputs": [
        {
          "internalType": "bytes",
          "name": "path",
          "type": "bytes"
        },
        {
          "internalType": "uint256",
          "name": "amountIn",
          "type": "uint256"
        },
        {
          "internalType": "bool",
          "name": "useDefiToken",
          "type": "bool"
        }
      ],
      "name": "quoteExactInput",
      "outputs": [
        {
          "internalType": "uint256",
          "name": "amountOut",
          "type": "uint256"
        },
        {
          "internalType": "uint256",
          "name": "amountDefi",
          "type": "uint256"
        },
        {
          "internalType": "uint160[]",
          "name": "sqrtPriceX96AfterList",
          "type": "uint160[]"
        },
        {
          "internalType": "uint32[]",
          "name": "initializedTicksCrossedList",
          "type": "uint32[]"
        },
        {
          "internalType": "uint256",
          "name": "gasEstimate",
          "type": "uint256"
        }
      ],
      "stateMutability": "nonpayable",
      "type": "function"
    },
    {
      "inputs": [
        {
          "components": [
            {
              "internalType": "address",
              "name": "tokenIn",
              "type": "address"
            },
            {
              "internalType": "address",
              "name": "tokenOut",
              "type": "address"
            },
            {
              "internalType": "uint256",
              "name": "amountIn",
              "type": "uint256"
            },
            {
              "internalType": "uint24",
              "name": "fee",
              "type": "uint24"
            },
            {
              "internalType": "uint160",
              "name": "sqrtPriceLimitX96",
              "type": "uint160"
            },
            {
              "internalType": "bool",
              "name": "useDefiToken",
              "type": "bool"
            }
          ],
          "internalType": "struct IQuoterV2.QuoteExactInputSingleParams",
          "name": "params",
          "type": "tuple"
        }
      ],
      "name": "quoteExactInputSingle",
      "outputs": [
        {
          "internalType": "uint256",
          "name": "amountOut",
          "type": "uint256"
        },
        {
          "internalType": "uint256",
          "name": "amountDefi",
          "type": "uint256"
        },
        {
          "internalType": "uint160",
          "name": "sqrtPriceX96After",
          "type": "uint160"
        },
        {
          "internalType": "uint32",
          "name": "initializedTicksCrossed",
          "type": "uint32"
        },
        {
          "internalType": "uint256",
          "name": "gasEstimate",
          "type": "uint256"
        }
      ],
      "stateMutability": "nonpayable",
      "type": "function"
    },
    {
      "inputs": [
        {
          "internalType": "bytes",
          "name": "path",
          "type": "bytes"
        },
        {
          "internalType": "uint256",
          "name": "amountOut",
          "type": "uint256"
        },
        {
          "internalType": "bool",
          "name": "useDefiToken",
          "type": "bool"
        }
      ],
      "name": "quoteExactOutput",
      "outputs": [
        {
          "internalType": "uint256",
          "name": "amountIn",
          "type": "uint256"
        },
        {
          "internalType": "uint256",
          "name": "amountDefi",
          "type": "uint256"
        },
        {
          "internalType": "uint160[]",
          "name": "sqrtPriceX96AfterList",
          "type": "uint160[]"
        },
        {
          "internalType": "uint32[]",
          "name": "initializedTicksCrossedList",
          "type": "uint32[]"
        },
        {
          "internalType": "uint256",
          "name": "gasEstimate",
          "type": "uint256"
        }
      ],
      "stateMutability": "nonpayable",
      "type": "function"
    },
    {
      "inputs": [
        {
          "components": [
            {
              "internalType": "address",
              "name": "tokenIn",
              "type": "address"
            },
            {
              "internalType": "address",
              "name": "tokenOut",
              "type": "address"
            },
            {
              "internalType": "uint256",
              "name": "amount",
              "type": "uint256"
            },
            {
              "internalType": "uint24",
              "name": "fee",
              "type": "uint24"
            },
            {
              "internalType": "uint160",
              "name": "sqrtPriceLimitX96",
              "type": "uint160"
            },
            {
              "internalType": "bool",
              "name": "useDefiToken",
              "type": "bool"
            }
          ],
          "internalType": "struct IQuoterV2.QuoteExactOutputSingleParams",
          "name": "params",
          "type": "tuple"
        }
      ],
      "name": "quoteExactOutputSingle",
      "outputs": [
        {
          "internalType": "uint256",
          "name": "amountIn",
          "type": "uint256"
        },
        {
          "internalType": "uint256",
          "name": "amountDefi",
          "type": "uint256"
        },
        {
          "internalType": "uint160",
          "name": "sqrtPriceX96After",
          "type": "uint160"
        },
        {
          "internalType": "uint32",
          "name": "initializedTicksCrossed",
          "type": "uint32"
        },
        {
          "internalType": "uint256",
          "name": "gasEstimate",
          "type": "uint256"
        }
      ],
      "stateMutability": "nonpayable",
      "type": "function"
    },
    {
      "inputs": [],
      "name": "renounceOwnership",
      "outputs": [],
      "stateMutability": "nonpayable",
      "type": "function"
    },
    {
      "inputs": [
        {
          "internalType": "address",
          "name": "WTCArg",
          "type": "address"
        }
      ],
      "name": "setWTC",
      "outputs": [],
      "stateMutability": "nonpayable",
      "type": "function"
    },
    {
      "inputs": [
        {
          "internalType": "address",
          "name": "newOwner",
          "type": "address"
        }
      ],
      "name": "transferOwnership",
      "outputs": [],
      "stateMutability": "nonpayable",
      "type": "function"
    },
    {
      "inputs": [
        {
          "internalType": "int256",
          "name": "amount0Delta",
          "type": "int256"
        },
        {
          "internalType": "int256",
          "name": "amount1Delta",
          "type": "int256"
        },
        {
          "internalType": "address",
          "name": "defiToken",
          "type": "address"
        },
        {
          "internalType": "int256",
          "name": "amountDefi",
          "type": "int256"
        },
        {
          "internalType": "bytes",
          "name": "path",
          "type": "bytes"
        }
      ],
      "name": "uniswapV3SwapCallback",
      "outputs": [],
      "stateMutability": "view",
      "type": "function"
    }
  ],
  "bytecode": "0x608060405234801561001057600080fd5b50612415806100206000396000f3fe608060405234801561001057600080fd5b50600436106100b45760003560e01c806385dd2deb1161007157806385dd2deb1461014f5780638da5cb5b14610162578063affdd4141461016a578063c45a01551461017d578063f2fde38b14610185578063fa27e18c14610198576100b4565b80630aa95e75146100b957806316520c63146100e65780631835d4eb1461010a57806327d89f291461011d578063485cc95514610132578063715018a614610147575b600080fd5b6100cc6100c7366004612048565b6101ab565b6040516100dd9594939291906122e9565b60405180910390f35b6100f96100f4366004611eed565b61037a565b6040516100dd959493929190612247565b6100cc610118366004612048565b610579565b610125610763565b6040516100dd91906121a4565b610145610140366004611eb5565b610772565b005b610145610820565b6100f961015d366004611eed565b6108de565b610125610ac1565b610145610178366004611e92565b610ad0565b610125610b66565b610145610193366004611e92565b610b75565b6101456101a6366004611f46565b610c8a565b60208101518151606083015160009283928392839283926001600160a01b03808316908216109284926101de9291610dff565b905060005a9050816001600160a01b0316635f4ea6846040518060a00160405280306001600160a01b0316815260200186151581526020016102238d60400151610e2a565b81526020018c608001516001600160a01b0316600014610247578c6080015161026d565b866102665773fffd8963efd1fc6a506488495d951d5263988d2561026d565b6401000276a45b6001600160a01b0316815260a08d015115156020918201528c5160608e01518e83015160405161029d9401612169565b6040516020818303038152906040526040518363ffffffff1660e01b81526004016102c99291906121f5565b606060405180830381600087803b1580156102e357600080fd5b505af1925050508015610313575060408051601f3d908101601f1916820190925261031091810190611fb1565b60015b61036a573d808015610341576040519150601f19603f3d011682016040523d82523d6000602084013e610346565b606091505b505a82039450610357818487610e40565b9850985098509850985050505050610371565b5050505050505b91939590929450565b600080606080600061038a611d00565b61039389610f00565b67ffffffffffffffff811180156103a957600080fd5b506040519080825280602002602001820160405280156103d3578160200160208202803683370190505b5093506103df89610f00565b67ffffffffffffffff811180156103f557600080fd5b5060405190808252806020026020018201604052801561041f578160200160208202803683370190505b506000825292505b60008060006104358c610f11565b9250925092506104936040518060c00160405280856001600160a01b03168152602001846001600160a01b031681526020018d81526020018362ffffff16815260200160006001600160a01b031681526020018c15158152506101ab565b60a089015263ffffffff1660808801526001600160a01b031660608701819052604087019190915260208601919091528451885189919081106104d257fe5b60200260200101906001600160a01b031690816001600160a01b03168152505083608001518685600001518151811061050757fe5b63ffffffff909216602092830291909101820152840151604085015160a086015186516001018752919c50989098019794909401936105458c610f42565b1561055a576105538c610f4a565b9b50610566565b8a98505050505061056e565b505050610427565b939792965093509350565b60208101518151606083015160009283928392839283926001600160a01b03808316908216109284926105ac9291610dff565b905087608001516001600160a01b0316600014156105cd5760408801516067555b60005a9050816001600160a01b0316635f4ea6846040518060a00160405280306001600160a01b0316815260200186151581526020016106108d60400151610e2a565b60000381526020018c608001516001600160a01b0316600014610637578c6080015161065d565b866106565773fffd8963efd1fc6a506488495d951d5263988d2561065d565b6401000276a45b6001600160a01b0316815260a08d015115156020918201528c81015160608e01518e5160405161068d9401612169565b6040516020818303038152906040526040518363ffffffff1660e01b81526004016106b99291906121f5565b606060405180830381600087803b1580156106d357600080fd5b505af1925050508015610703575060408051601f3d908101601f1916820190925261070091810190611fb1565b60015b61036a573d808015610731576040519150601f19603f3d011682016040523d82523d6000602084013e610736565b606091505b505a8203945089608001516001600160a01b0316600014156107585760006067555b610357818487610e40565b6066546001600160a01b031681565b600054610100900460ff168061078b575061078b610f67565b80610799575060005460ff16155b6107d45760405162461bcd60e51b815260040180806020018281038252602e8152602001806123db602e913960400191505060405180910390fd5b600054610100900460ff161580156107ff576000805460ff1961ff0019909116610100171660011790555b6108098383610f78565b801561081b576000805461ff00191690555b505050565b610828611053565b6001600160a01b0316610839610ac1565b6001600160a01b031614610894576040805162461bcd60e51b815260206004820181905260248201527f4f776e61626c653a2063616c6c6572206973206e6f7420746865206f776e6572604482015290519081900360640190fd5b6033546040516000916001600160a01b0316907f8be0079c531659141344cd1fd0a4f28419497f9722a3daafe3b4186f6b6457e0908390a3603380546001600160a01b0319169055565b60008060608060006108ee611d00565b6108f789610f00565b67ffffffffffffffff8111801561090d57600080fd5b50604051908082528060200260200182016040528015610937578160200160208202803683370190505b50935061094389610f00565b67ffffffffffffffff8111801561095957600080fd5b50604051908082528060200260200182016040528015610983578160200160208202803683370190505b506000825292505b60008060006109998c610f11565b9250925092506109f76040518060c00160405280846001600160a01b03168152602001856001600160a01b031681526020018d81526020018362ffffff16815260200160006001600160a01b031681526020018c1515815250610579565b60a089015263ffffffff1660808801526001600160a01b03166060870181905260408701919091526020860191909152845188518991908110610a3657fe5b60200260200101906001600160a01b031690816001600160a01b031681525050836080015186856000015181518110610a6b57fe5b63ffffffff909216602092830291909101820152840151604085015160a086015186516001018752919c5098909801979490940193610aa98c610f42565b1561055a57610ab78c610f4a565b9b5050505061098b565b6033546001600160a01b031690565b610ad8611053565b6001600160a01b0316610ae9610ac1565b6001600160a01b031614610b44576040805162461bcd60e51b815260206004820181905260248201527f4f776e61626c653a2063616c6c6572206973206e6f7420746865206f776e6572604482015290519081900360640190fd5b606680546001600160a01b0319166001600160a01b0392909216919091179055565b6065546001600160a01b031681565b610b7d611053565b6001600160a01b0316610b8e610ac1565b6001600160a01b031614610be9576040805162461bcd60e51b815260206004820181905260248201527f4f776e61626c653a2063616c6c6572206973206e6f7420746865206f776e6572604482015290519081900360640190fd5b6001600160a01b038116610c2e5760405162461bcd60e51b81526004018080602001828103825260268152602001806123b56026913960400191505060405180910390fd5b6033546040516001600160a01b038084169216907f8be0079c531659141344cd1fd0a4f28419497f9722a3daafe3b4186f6b6457e090600090a3603380546001600160a01b0319166001600160a01b0392909216919091179055565b6000851380610c995750600084135b610ca257600080fd5b6000806000610cb084610f11565b6065549295509093509150610cd0906001600160a01b0316848484611057565b506000806000808b13610cfc57856001600160a01b0316856001600160a01b0316108a8c600003610d17565b846001600160a01b0316866001600160a01b0316108b8b6000035b9250925092506000610d2a878787610dff565b9050600080826001600160a01b0316633850c7bd6040518163ffffffff1660e01b815260040160e06040518083038186803b158015610d6857600080fd5b505afa158015610d7c573d6000803e3d6000fd5b505050506040513d601f19601f82011682018060405250810190610da09190612063565b5050505050915091508515610dcc576060518481528b6020820152826040820152816060820152608081fd5b60675415610de2576067548414610de257600080fd5b6060518581528b6020820152826040820152816060820152608081fd5b606554600090610e22906001600160a01b0316610e1d868686611076565b6110cc565b949350505050565b6000600160ff1b8210610e3c57600080fd5b5090565b6000806000806000806000886001600160a01b0316633850c7bd6040518163ffffffff1660e01b815260040160e06040518083038186803b158015610e8457600080fd5b505afa158015610e98573d6000803e3d6000fd5b505050506040513d601f19601f82011682018060405250810190610ebc9190612063565b50939650610ed194508e93506111b092505050565b92995090975095509050610eef6001600160a01b038a168383611240565b969a95995093975094959450505050565b80516017601319909101045b919050565b60008080610f1f84826117c9565b9250610f2c846014611879565b9050610f398460176117c9565b91509193909250565b516042111590565b8051606090610f6190839060179060161901611920565b92915050565b6000610f7230611a71565b15905090565b600054610100900460ff1680610f915750610f91610f67565b80610f9f575060005460ff16155b610fda5760405162461bcd60e51b815260040180806020018281038252602e8152602001806123db602e913960400191505060405180910390fd5b600054610100900460ff16158015611005576000805460ff1961ff0019909116610100171660011790555b61100d611a77565b606580546001600160a01b038086166001600160a01b0319928316179092556066805492851692909116919091179055801561081b576000805461ff0019169055505050565b3390565b600061106d85611068868686611076565b611b29565b95945050505050565b61107e611d45565b826001600160a01b0316846001600160a01b0316111561109c579192915b50604080516060810182526001600160a01b03948516815292909316602083015262ffffff169181019190915290565b600081602001516001600160a01b031682600001516001600160a01b0316106110f457600080fd5b50805160208083015160409384015184516001600160a01b0394851681850152939091168385015262ffffff166060808401919091528351808403820181526080840185528051908301206001600160f81b031960a085015294901b6bffffffffffffffffffffffff191660a183015260b58201939093527f04759a882be3a45ff74719de5c82516d29af4b3480d076fc0c57b2fdab813bc760d5808301919091528251808303909101815260f5909101909152805191012090565b600080600080845160801461121d576064855110156111ea5760405162461bcd60e51b81526004016111e1906121cb565b60405180910390fd5b600485019450848060200190518101906112049190611fde565b60405162461bcd60e51b81526004016111e191906121b8565b8480602001905181019061123191906120f6565b93509350935093509193509193565b60008060008060008060008060088b6001600160a01b031663d0c93a7c6040518163ffffffff1660e01b815260040160206040518083038186803b15801561128757600080fd5b505afa15801561129b573d6000803e3d6000fd5b505050506040513d60208110156112b157600080fd5b5051600290810b908c900b816112c357fe5b0560020b901d905060006101008c6001600160a01b031663d0c93a7c6040518163ffffffff1660e01b815260040160206040518083038186803b15801561130957600080fd5b505afa15801561131d573d6000803e3d6000fd5b505050506040513d602081101561133357600080fd5b5051600290810b908d900b8161134557fe5b0560020b8161135057fe5b079050600060088d6001600160a01b031663d0c93a7c6040518163ffffffff1660e01b815260040160206040518083038186803b15801561139057600080fd5b505afa1580156113a4573d6000803e3d6000fd5b505050506040513d60208110156113ba57600080fd5b5051600290810b908d900b816113cc57fe5b0560020b901d905060006101008e6001600160a01b031663d0c93a7c6040518163ffffffff1660e01b815260040160206040518083038186803b15801561141257600080fd5b505afa158015611426573d6000803e3d6000fd5b505050506040513d602081101561143c57600080fd5b5051600290810b908e900b8161144e57fe5b0560020b8161145957fe5b07905060008160ff166001901b8f6001600160a01b0316635339c296856040518263ffffffff1660e01b8152600401808260010b815260200191505060206040518083038186803b1580156114ad57600080fd5b505afa1580156114c1573d6000803e3d6000fd5b505050506040513d60208110156114d757600080fd5b50511611801561155d57508d6001600160a01b031663d0c93a7c6040518163ffffffff1660e01b815260040160206040518083038186803b15801561151b57600080fd5b505afa15801561152f573d6000803e3d6000fd5b505050506040513d602081101561154557600080fd5b5051600290810b908d900b8161155757fe5b0760020b155b801561156e57508b60020b8d60020b135b945060008360ff166001901b8f6001600160a01b0316635339c296876040518263ffffffff1660e01b8152600401808260010b815260200191505060206040518083038186803b1580156115c157600080fd5b505afa1580156115d5573d6000803e3d6000fd5b505050506040513d60208110156115eb57600080fd5b50511611801561167157508d6001600160a01b031663d0c93a7c6040518163ffffffff1660e01b815260040160206040518083038186803b15801561162f57600080fd5b505afa158015611643573d6000803e3d6000fd5b505050506040513d602081101561165957600080fd5b5051600290810b908e900b8161166b57fe5b0760020b155b801561168257508b60020b8d60020b125b95508160010b8460010b12806116ae57508160010b8460010b1480156116ae57508060ff168360ff1611155b156116c4578399508297508198508096506116d1565b8199508097508398508296505b505060001960ff87161b9150505b8560010b8760010b136117a1578560010b8760010b14156117065760001960ff858103161c165b6000818c6001600160a01b0316635339c2968a6040518263ffffffff1660e01b8152600401808260010b815260200191505060206040518083038186803b15801561175057600080fd5b505afa158015611764573d6000803e3d6000fd5b505050506040513d602081101561177a57600080fd5b505116905061178881611b4c565b61ffff16989098019750506001909501946000196116df565b81156117ae576001880397505b82156117bb576001880397505b505050505050509392505050565b600081826014011015611818576040805162461bcd60e51b8152602060048201526012602482015271746f416464726573735f6f766572666c6f7760701b604482015290519081900360640190fd5b8160140183511015611869576040805162461bcd60e51b8152602060048201526015602482015274746f416464726573735f6f75744f66426f756e647360581b604482015290519081900360640190fd5b500160200151600160601b900490565b6000818260030110156118c7576040805162461bcd60e51b8152602060048201526011602482015270746f55696e7432345f6f766572666c6f7760781b604482015290519081900360640190fd5b8160030183511015611917576040805162461bcd60e51b8152602060048201526014602482015273746f55696e7432345f6f75744f66426f756e647360601b604482015290519081900360640190fd5b50016003015190565b60608182601f01101561196b576040805162461bcd60e51b815260206004820152600e60248201526d736c6963655f6f766572666c6f7760901b604482015290519081900360640190fd5b8282840110156119b3576040805162461bcd60e51b815260206004820152600e60248201526d736c6963655f6f766572666c6f7760901b604482015290519081900360640190fd5b818301845110156119ff576040805162461bcd60e51b8152602060048201526011602482015270736c6963655f6f75744f66426f756e647360781b604482015290519081900360640190fd5b606082158015611a1e5760405191506000825260208201604052611a68565b6040519150601f8416801560200281840101858101878315602002848b0101015b81831015611a57578051835260209283019201611a3f565b5050858452601f01601f1916604052505b50949350505050565b3b151590565b600054610100900460ff1680611a905750611a90610f67565b80611a9e575060005460ff16155b611ad95760405162461bcd60e51b815260040180806020018281038252602e8152602001806123db602e913960400191505060405180910390fd5b600054610100900460ff16158015611b04576000805460ff1961ff0019909116610100171660011790555b611b0c611b67565b611b14611c07565b8015611b26576000805461ff00191690555b50565b6000611b3583836110cc565b9050336001600160a01b03821614610f6157600080fd5b6000805b8215610f6157600019830190921691600101611b50565b600054610100900460ff1680611b805750611b80610f67565b80611b8e575060005460ff16155b611bc95760405162461bcd60e51b815260040180806020018281038252602e8152602001806123db602e913960400191505060405180910390fd5b600054610100900460ff16158015611b14576000805460ff1961ff0019909116610100171660011790558015611b26576000805461ff001916905550565b600054610100900460ff1680611c205750611c20610f67565b80611c2e575060005460ff16155b611c695760405162461bcd60e51b815260040180806020018281038252602e8152602001806123db602e913960400191505060405180910390fd5b600054610100900460ff16158015611c94576000805460ff1961ff0019909116610100171660011790555b6000611c9e611053565b603380546001600160a01b0319166001600160a01b038316908117909155604051919250906000907f8be0079c531659141344cd1fd0a4f28419497f9722a3daafe3b4186f6b6457e0908290a3508015611b26576000805461ff001916905550565b6040518060c0016040528060008152602001600081526020016000815260200160006001600160a01b03168152602001600063ffffffff168152602001600081525090565b604080516060810182526000808252602082018190529181019190915290565b8035610f0c81612391565b8035610f0c816123a6565b600082601f830112611d8b578081fd5b8135611d9e611d998261233f565b61231b565b818152846020838601011115611db2578283fd5b816020850160208301379081016020019190915292915050565b8051600281900b8114610f0c57600080fd5b600060c08284031215611def578081fd5b60405160c0810181811067ffffffffffffffff82111715611e0c57fe5b6040529050808235611e1d81612391565b81526020830135611e2d81612391565b602082015260408381013590820152606083013562ffffff81168114611e5257600080fd5b6060820152611e6360808401611d65565b6080820152611e7460a08401611d70565b60a08201525092915050565b805161ffff81168114610f0c57600080fd5b600060208284031215611ea3578081fd5b8135611eae81612391565b9392505050565b60008060408385031215611ec7578081fd5b8235611ed281612391565b91506020830135611ee281612391565b809150509250929050565b600080600060608486031215611f01578081fd5b833567ffffffffffffffff811115611f17578182fd5b611f2386828701611d7b565b935050602084013591506040840135611f3b816123a6565b809150509250925092565b600080600080600060a08688031215611f5d578081fd5b85359450602086013593506040860135611f7681612391565b925060608601359150608086013567ffffffffffffffff811115611f98578182fd5b611fa488828901611d7b565b9150509295509295909350565b600080600060608486031215611fc5578283fd5b8351925060208401519150604084015190509250925092565b600060208284031215611fef578081fd5b815167ffffffffffffffff811115612005578182fd5b8201601f81018413612015578182fd5b8051612023611d998261233f565b818152856020838501011115612037578384fd5b61106d826020830160208601612361565b600060c08284031215612059578081fd5b611eae8383611dde565b600080600080600080600060e0888a03121561207d578485fd5b875161208881612391565b965061209660208901611dcc565b95506120a460408901611e80565b94506120b260608901611e80565b93506120c060808901611e80565b925060a088015160ff811681146120d5578283fd5b60c08901519092506120e6816123a6565b8091505092959891949750929550565b6000806000806080858703121561210b578182fd5b8451935060208501519250604085015161212481612391565b915061213260608601611dcc565b905092959194509250565b60008151808452612155816020860160208601612361565b601f01601f19169290920160200192915050565b606093841b6bffffffffffffffffffffffff19908116825260e89390931b6001600160e81b0319166014820152921b166017820152602b0190565b6001600160a01b0391909116815260200190565b600060208252611eae602083018461213d565b60208082526010908201526f2ab732bc3832b1ba32b21032b93937b960811b604082015260600190565b600060018060a01b03808551168352602085015115156020840152604085015160408401528060608601511660608401525060808401511515608083015260c060a0830152610e2260c083018461213d565b600060a082018783526020878185015260a0604085015281875180845260c0860191508289019350845b818110156122965784516001600160a01b031683529383019391830191600101612271565b505084810360608601528651808252908201925081870190845b818110156122d257825163ffffffff16855293830193918301916001016122b0565b505050506080929092019290925295945050505050565b94855260208501939093526001600160a01b0391909116604084015263ffffffff166060830152608082015260a00190565b60405181810167ffffffffffffffff8111828210171561233757fe5b604052919050565b600067ffffffffffffffff82111561235357fe5b50601f01601f191660200190565b60005b8381101561237c578181015183820152602001612364565b8381111561238b576000848401525b50505050565b6001600160a01b0381168114611b2657600080fd5b8015158114611b2657600080fdfe4f776e61626c653a206e6577206f776e657220697320746865207a65726f2061646472657373496e697469616c697a61626c653a20636f6e747261637420697320616c726561647920696e697469616c697a6564a164736f6c6343000706000a",
  "linkReferences": {},
  "deployedLinkReferences": {}
}